:020000040800F2
:1000000000000320A1290008212700082327000859
:1000100025270008272700082927000800000000DE
:100020000000000000000000000000002B27000876
:100030002D270008000000002F27000831270008A6
:10004000F1290008F1290008F1290008F129000828
:10005000F1290008F1290008F1290008F129000818
:10006000F1290008F1290008F1290008F129000808
:10007000F1290008F1290008F1290008F1290008F8
:1000800039270008F1290008F1290008492700084C
:1000900059270008F1290008F1290008F129000872
:1000A000F1290008F1290008F1290008F1290008C8
:1000B000F1290008F1290008F1290008F1290008B8
:1000C000F1290008F1290008F1290008F1290008A8
:1000D000F1290008F129000869270008F129000822
:1000E000F1290008F1290008F1290008F129000888
:1000F000F1290008F1290008F1290008F129000878
:10010000F1290008F1290008F1290008F129000867
:10011000F1290008F1290008F1290008F129000857
:10012000F1290008F129000879270008F1290008C1
:10013000F1290008F1290008F129000889270008A1
:10014000F129000899270008F1290008F129000881
:10015000F1290008F1290008F1290008F129000817
:10016000F1290008F1290008F1290008F129000807
:10017000F1290008F1290008F12900080000000019
:10018000F1290008F1290008F1290008F1290008E7
:10019000F1290008F1290008F1290008F1290008D7
:0C01A0000000000000000000F129000831
:1001B0004FF0FF0C1CEAD0521EBF1CEAD15392EA4A
:1001C0000C0F93EA0C0F6FD01A4480EA010C400226
:1001D00018BF5FEA41211ED04FF0006343EA501080
:1001E00043EA5111A0FB01310CF00040B1F5000FC2
:1001F0003EBF490041EAD3715B0040EA010062F171
:100200007F02FD2A1DD8B3F1004F40EBC25008BF5A
:1002100020F00100704790F0000F0CF0004C08BF78
:1002200049024CEA502040EA51207F3AC2BFD2F145
:10023000FF0340EAC250704740F400004FF0000353
:10024000013A5DDC12F1190FDCBF00F0004070478D
:10025000C2F10002410021FA02F1C2F1200200FACB
:1002600002FC5FEA310040F1000053EA4C0308BF92
:1002700020EADC70704792F0000F00F0004C02BFE3
:10028000400010F4000F013AF9D040EA0C0093F05E
:10029000000F01F0004C02BF490011F4000F013BB8
:1002A000F9D041EA0C018FE70CEAD15392EA0C0F26
:1002B00018BF93EA0C0F0AD030F0004C18BF31F091
:1002C000004CD8D180EA010000F00040704790F067
:1002D000000F17BF90F0004F084691F0000F91F00B
:1002E000004F14D092EA0C0F01D142020FD193EAD1
:1002F0000C0F03D14B0218BF084608D180EA010059
:1003000000F0004040F0FE4040F40000704740F034
:10031000FE4040F44000704781F0004102E000BF21
:1003200083F0004330B54FEA41044FEA430594EAB5
:10033000050F08BF90EA020F1FBF54EA000C55EAF0
:10034000020C7FEA645C7FEA655C00F0E2804FEAC1
:100350005454D4EB5555B8BF6D420CDD2C4480EAA3
:10036000020281EA030382EA000083EA010180EAD3
:10037000020281EA0303362D88BF30BD11F0004F21
:100380004FEA01314FF4801C4CEA113102D0404257
:1003900061EB410113F0004F4FEA03334CEA133392
:1003A00002D0524263EB430394EA050F00F0A780AA
:1003B000A4F10104D5F1200E0DDB02FA0EFC22FAA5
:1003C00005F2801841F1000103FA0EF2801843FA99
:1003D00005F359410EE0A5F120050EF1200E012A8A
:1003E00003FA0EFC28BF4CF0020C43FA05F3C018C8
:1003F00051EBE37101F0004507D54FF0000EDCF141
:10040000000C7EEB00006EEB0101B1F5801F1BD3E9
:10041000B1F5001F0CD349085FEA30004FEA3C0CED
:1004200004F101044FEA445212F5800F80F09A80E3
:10043000BCF1004F08BF5FEA500C50F1000041EBE7
:10044000045141EA050130BD5FEA4C0C404141EBEB
:100450000101013C28BFB1F5801FE9D291F0000FE6
:1004600004BF01460020B1FA81F308BF2033A3F195
:100470000B03B3F120020CDA0C3208DD02F1140C8C
:10048000C2F10C0201FA0CF021FA02F10CE002F1C7
:100490001402D8BFC2F1200C01FA02F120FA0CFCC0
:1004A000DCBF41EA0C019040E41AA2BF01EB045109
:1004B000294330BD6FEA04041F3C1CDA0C340EDC07
:1004C00004F11404C4F1200220FA04F001FA02F34A
:1004D00040EA030021FA04F345EA030130BDC4F108
:1004E0000C04C4F1200220FA02F001FA04F340EAFD
:1004F0000300294630BD21FA04F0294630BD94F0AE
:10050000000F83F4801306BF81F480110134013D94
:100510004EE77FEA645C18BF7FEA655C29D094EA05
:10052000050F08BF90EA020F05D054EA000C04BF83
:100530001946104630BD91EA030F1EBF002100206E
:1005400030BD5FEA545C05D14000494128BF41F00D
:10055000004130BD14F580043CBF01F5801130BD71
:1005600001F0004545F0FE4141F470014FF00000FC
:1005700030BD7FEA645C1ABF194610467FEA655CAD
:100580001CBF0B46024650EA013406BF52EA03354F
:1005900091EA030F41F4002130BD00BF90F0000F3D
:1005A00004BF0021704730B54FF4806404F1320479
:1005B0004FF000054FF0000150E700BF90F0000F32
:1005C00004BF0021704730B54FF4806404F1320459
:1005D00010F0004548BF40424FF000013EE700BF29
:1005E00042004FEAE2014FEA31014FEA02701FBFB9
:1005F00012F07F4393F07F4F81F06051704732F0EB
:100600007F4208BF704793F07F4F04BF41F4002141
:10061000704730B54FF4607401F0004521F000419F
:100620001CE700BF50EA010208BF704730B54FF029
:1006300000050AE050EA010208BF704730B511F02A
:10064000004502D5404261EB41014FF4806404F162
:1006500032045FEA915C3FF4D8AE4FF003025FEAE8
:10066000DC0C18BF03325FEADC0C18BF033202EB6C
:10067000DC02C2F1200300FA03FC20FA02F001FAC6
:1006800003FE40EA0E0021FA02F11444BDE600BF69
:1006900070B54FF0FF0C4CF4E06C1CEA11541DBF18
:1006A0001CEA135594EA0C0F95EA0C0F00F0DEF8E3
:1006B0002C4481EA030621EA4C5123EA4C5350EAC8
:1006C000013518BF52EA033541F4801143F4801319
:1006D00038D0A0FB02CE4FF00005E1FB02E506F0AA
:1006E0000042E0FB03E54FF00006E1FB03569CF0FF
:1006F000000F18BF4EF0010EA4F1FF04B6F5007F05
:1007000064F5407404D25FEA4E0E6D4146EB060676
:1007100042EAC62141EA55514FEAC52040EA5E50FF
:100720004FEACE2EB4F1FD0C88BFBCF5E06F1ED8A9
:10073000BEF1004F08BF5FEA500E50F1000041EBE0
:10074000045170BD06F0004646EA010140EA02008D
:1007500081EA0301B4EB5C04C2BFD4EB0C0541EAAF
:10076000045170BD41F480114FF0000E013C00F3C4
:10077000AB8014F1360FDEBF002001F0004170BDE8
:10078000C4F10004203C35DA0C341BDC04F1140401
:10079000C4F1200500FA05F320FA04F001FA05F28D
:1007A00040EA020001F0004221F0004110EBD3705A
:1007B00021FA04F642EB06015EEA430E08BF20EA86
:1007C000D37070BDC4F10C04C4F1200500FA04F329
:1007D00020FA05F001FA04F240EA020001F00041BB
:1007E00010EBD37041F100015EEA430E08BF20EA2E
:1007F000D37070BDC4F1200500FA05F24EEA020E76
:1008000020FA04F301FA05F243EA020321FA04F0A4
:1008100001F0004121FA04F220EA020000EBD3705B
:100820005EEA430E08BF20EAD37070BD94F0000F5B
:100830000FD101F00046400041EB010111F4801F8F
:1008400008BF013CF7D041EA060195F0000F18BF40
:10085000704703F00046520043EB030313F4801F7C
:1008600008BF013DF7D043EA0603704794EA0C0F36
:100870000CEA135518BF95EA0C0F0CD050EA41064C
:1008800018BF52EA4306D1D181EA030101F00041C9
:100890004FF0000070BD50EA410606BF10461946F1
:1008A00052EA430619D094EA0C0F02D150EA0136FD
:1008B00013D195EA0C0F05D152EA03361CBF10463E
:1008C00019460AD181EA030101F0004141F0FE41DD
:1008D00041F470014FF0000070BD41F0FE4141F461
:1008E000780170BD70B54FF0FF0C4CF4E06C1CEA61
:1008F00011541DBF1CEA135594EA0C0F95EA0C0F16
:1009000000F0A7F8A4EB050481EA030E52EA0335D0
:100910004FEA013100F088804FEA03334FF08055F1
:1009200045EA131343EA12634FEA022245EA11151E
:1009300045EA10654FEA00260EF000419D4208BFCF
:10094000964244F1FD0404F5407402D25B084FEA7C
:100950003202B61A65EB03055B084FEA32024FF428
:1009600080104FF4002CB6EB020E75EB030E22BF85
:10097000B61A754640EA0C005B084FEA3202B6EB45
:10098000020E75EB030E22BFB61A754640EA5C00F4
:100990005B084FEA3202B6EB020E75EB030E22BF84
:1009A000B61A754640EA9C005B084FEA3202B6EB85
:1009B000020E75EB030E22BFB61A754640EADC0044
:1009C00055EA060E18D04FEA051545EA16754FEAA6
:1009D00006164FEAC30343EA52734FEAC2025FEAC4
:1009E0001C1CC0D111F4801F0BD141EA00014FF053
:1009F00000004FF0004CB6E711F4801F04BF014324
:100A00000020B4F1FD0C88BFBCF5E06F3FF6AFAE3F
:100A1000B5EB030C04BFB6EB020C5FEA500C50F1CF
:100A2000000041EB045170BD0EF0004E4EEA113152
:100A300014EB5C04C2BFD4EB0C0541EA045170BD59
:100A400041F480114FF0000E013C90E645EA060E9D
:100A50008DE60CEA135594EA0C0F08BF95EA0C0FCB
:100A60003FF43BAF94EA0C0F0AD150EA01347FF413
:100A700034AF95EA0C0F7FF425AF104619462CE7EA
:100A800095EA0C0F06D152EA03353FF4FDAE10464D
:100A9000194622E750EA410618BF52EA43067FF49E
:100AA000C5AE50EA41047FF40DAF52EA43057FF42E
:100AB000EBAE12E74FEA410212F5001215D211D542
:100AC0006FF47873B3EB625212D94FEAC12343F04B
:100AD000004343EA505311F0004F23FA02F018BFCD
:100AE000404270474FF00000704750EA013005D196
:100AF00011F0004008BF6FF0004070474FF0000059
:100B0000704700BF4A0011D212F5001211D20DD564
:100B10006FF47873B3EB62520ED44FEAC12343F003
:100B2000004343EA505323FA02F070474FF00000AD
:100B3000704750EA013002D14FF0FF3070474FF05C
:100B4000000070474FEA4102B2F1E04324BFB3F521
:100B5000001CDCF1FE5C0DD901F0004C4FEAC00234
:100B60004CEA5070B2F1004F40EB830008BF20F018
:100B70000100704711F0804F21D113F13872BCBFD2
:100B800001F00040704741F480114FEA5252C2F127
:100B90001802C2F1200C10FA0CF320FA02F018BF70
:100BA00040F001004FEAC1234FEAD32303FA0CFCC3
:100BB00040EA0C0023FA02F34FEA4303CCE77FEA52
:100BC000625307D150EA01331EBF4FF0FE4040F49C
:100BD0004000704701F0004040F0FE4040F400004B
:100BE000704700BF80F0004002E000BF81F000418C
:100BF00042001FBF5FEA410392EA030F7FEA226CC3
:100C00007FEA236C6AD04FEA1262D2EB1363C1BF52
:100C1000D218414048404140B8BF5B42192B88BFC1
:100C2000704710F0004F40F4000020F07F4018BFE4
:100C3000404211F0004F41F4000121F07F4118BF04
:100C4000494292EA030F3FD0A2F1010241FA03FCAC
:100C500010EB0C00C3F1200301FA03F100F0004394
:100C600002D5494260EB4000B0F5000F13D3B0F15C
:100C7000807F06D340084FEA310102F10102FE2ACB
:100C800051D2B1F1004F40EBC25008BF20F001003B
:100C900040EA03007047490040EB0000013A28BFDA
:100CA000B0F5000FEDD2B0FA80FCACF1080CB2EB5D
:100CB0000C0200FA0CF0AABF00EBC25052421843DB
:100CC000BCBFD0401843704792F0000F81F4000180
:100CD00006BF80F400000132013BB5E74FEA410353
:100CE0007FEA226C18BF7FEA236C21D092EA030FBF
:100CF00004D092F0000F08BF0846704790EA010F39
:100D00001CBF0020704712F07F4F04D1400028BF65
:100D100040F00040704712F100723CBF00F5000047
:100D2000704700F0004343F0FE4040F4000070477D
:100D30007FEA226216BF08467FEA23630146420229
:100D400006BF5FEA412390EA010F40F4800070473C
:100D50004FF0000304E000BF10F0004348BF4042E2
:100D60005FEA000C08BF704743F0964301464FF01E
:100D700000001CE050EA010208BF70474FF000037A
:100D80000AE000BF50EA010208BF704711F00043BB
:100D900002D5404261EB41015FEA010C02BF84468B
:100DA0000146002043F0B64308BFA3F18053A3F5EA
:100DB0000003BCFA8CF2083AA3EBC25310DB01FA31
:100DC00002FC634400FA02FCC2F12002BCF1004FB5
:100DD00020FA02F243EB020008BF20F00100704746
:100DE00002F1200201FA02FCC2F1200250EA4C009A
:100DF00021FA02F243EB020008BF20EADC707047E0
:100E00004FF0FF3C06E000BF4FF0010C02E000BFD6
:100E10004FF0010C4DF804CD4FEA40024FEA410378
:100E20007FEA226C18BF7FEA236C11D001B052EA2E
:100E3000530C18BF90EA010F58BFB2EB030088BFF4
:100E4000C81738BF6FEAE17018BF40F00100704763
:100E50007FEA226C02D15FEA402C05D17FEA236C45
:100E6000E4D15FEA412CE1D05DF8040B704700BF8C
:100E7000844608466146FFE70FB5FFF7C9FF002823
:100E800048BF10F1000F0FBD4DF808EDFFF7F4FF5C
:100E90000CBF012000205DF808FB00BF4DF808EDF5
:100EA000FFF7EAFF34BF012000205DF808FB00BF18
:100EB0004DF808EDFFF7E0FF94BF012000205DF83A
:100EC00008FB00BF4DF808EDFFF7D2FF94BF0120EB
:100ED00000205DF808FB00BF4DF808EDFFF7C8FFE4
:100EE00034BF012000205DF808FB00BF4FEA40023C
:100EF000B2F1FE4F0FD34FF09E03B3EB12620DD948
:100F00004FEA002343F0004310F0004F23FA02F0B1
:100F100018BF404270474FF00000704712F1610F58
:100F200001D1420205D110F0004008BF6FF000402F
:100F300070474FF00000704753B94AB9002908BF05
:100F400000281CBF4FF0FF314FF0FF3000F00CB80D
:100F5000ADF1080C6DE904CE03F0BCFCDDF804E053
:100F6000DDE9022304B07047704700BF4FF0FF3C3B
:100F700006E000BF4FF0010C02E000BF4FF0010C93
:100F80004DF804CD4FEA410C7FEA6C5C4FEA430C0C
:100F900018BF7FEA6C5C1BD001B050EA410C0CBF5B
:100FA00052EA430C91EA030F02BF90EA020F0020BD
:100FB000704710F1000F91EA030F58BF994208BF24
:100FC00090422CBFD8176FEAE37040F001007047E1
:100FD0004FEA410C7FEA6C5C02D150EA013C07D138
:100FE0004FEA430C7FEA6C5CD6D152EA033CD3D083
:100FF0005DF8040B704700BF8446104662468C467D
:101000001946634600E000BF01B5FFF7B7FF0028AF
:1010100048BF10F1000F01BD4DF808EDFFF7F4FFD8
:101020000CBF012000205DF808FB00BF4DF808ED63
:10103000FFF7EAFF34BF012000205DF808FB00BF86
:101040004DF808EDFFF7E0FF94BF012000205DF8A8
:1010500008FB00BF4DF808EDFFF7CEFF94BF01205D
:1010600000205DF808FB00BF4DF808EDFFF7C4FF56
:1010700034BF012000205DF808FB00BF4FEA410C9F
:101080007FEA6C5C02D150EA013C0AD14FEA430C82
:101090007FEA6C5C02D152EA033C02D14FF00000BF
:1010A00070474FF0010070470348044B834202D061
:1010B000034B03B1184770475C0100205C0100201E
:1010C000000000000548064B1B1AD90F01EBA301D5
:1010D000491002D0034B03B1184770475C01002050
:1010E0005C0100200000000010B5064C237843B9D5
:1010F000FFF7DAFF044B13B10448AFF3008001237C
:10110000237010BD5C01002000000000CC610008CD
:1011100008B5054B1BB105490548AFF30080BDE894
:101120000840FFF7CFBF00BF0000000060010020B3
:10113000CC610008034600283DD00278407842EA9E
:101140000022C2F30A020A8058789A78520142EAD1
:10115000D002C2F30A024A809878DA78920042EA12
:101160009012187942EA8022C2F30A028A80187922
:101170005A79D20142EA5002C2F30A02CA805A796D
:1011800092090A725A79C2F301124A729A79D8798D
:1011900042EA00224A811A7A587A42EA00228A8177
:1011A0009A7AD87A42EA0022CA811A7B0A745A7B58
:1011B0004A749B7B4B82704710B5064C122206493D
:1011C000204603F053FBE36B1A68136823F008030F
:1011D000136010BDC8070020AC06002010B50446FF
:1011E000184B5B7A022B0CD0164B1A8940F2023353
:1011F0009A4209D0134B1A8940F201139A421ED029
:1012000010BD00F013FAEFE70E4BD888A0F5806010
:1012100000B220809988C1F5806109B261801A8886
:10122000C2F5806212B2A28000F03AFBB4F9042049
:10123000B4F90210B4F9000000F072FADAE700F035
:10124000FDF9DDE7800100202DE9F84316461F4631
:10125000DDE90A89FFF764F804460D4642464B462D
:10126000DDE90C01FFF75CF802460B4620462946F3
:10127000FFF70EFA04460D4632463B46DDE908010B
:10128000FFF74EF802460B4620462946FFF72AFB99
:1012900042464B46FFF746F8BDE8F883F8B50F46DF
:1012A00016461D46FFF758FD2049FEF781FF204CEA
:1012B00020603846FFF750FD1C49FEF779FF60605B
:1012C0003046FFF749FD1949FEF772FFA060284636
:1012D000FFF742FD1549FEF76BFFE060002416E0C2
:1012E000C4EBC403134D05EB8305B5F90600FFF706
:1012F00033FD02460E4B53F8241034200E4B00FBF6
:10130000043000F03DFDFFF7F1FD68800134032C4F
:10131000E6DD0848B0F95630B0F93A20B0F91E10B1
:10132000B0F9020000F0ACFBF8BD00BF00001041B6
:10133000B4010020E0010020600400202DE9F04706
:1013400007460E4614469846AD4BB3F91A90AD4980
:10135000FEF72EFF05464846FFF7FEFC2946FFF73D
:1013600045FC81464FF08B41FFF7B6FD002800F0A9
:10137000CC80A34A1369013313613846FFF7B6FDE9
:1013800000B29F4B5883FFF7E7FC2946FFF72EFC7E
:101390004FF08B41FFF7A0FD002800F0C280984A73
:1013A000136901331361964F3046FFF79FFDF886AE
:1013B000B7F9529093492046FEF7FAFE0746484691
:1013C000FFF7CAFC3946FFF711FC81464FF08B410D
:1013D000FFF782FD002800F0BD80894A936C01333D
:1013E0009364DFF81C922046FFF780FDA9F85200B5
:1013F000B9F96E4083494046FEF7DAFE8246204640
:10140000FFF7AAFC5146FFF7F1FB04464FF08B4172
:10141000FFF762FD002800F0A980D9F8643001339D
:10142000C9F86430764C4046FFF760FDA4F86E00C2
:1014300020694003FFF790FC2946FFF7D9FB72496A
:10144000FFF7D6FBFFF752FD0FFA80F9A4F81490CE
:10145000E36A4FEA43386B493046FEF7A9FE05467A
:101460004046FFF779FC2946FFF7C2FB6749FFF7C3
:10147000BFFBFFF73BFD0FFA80F8A4F83080A06CAB
:101480004003FFF769FC3946FFF7B2FB6049FFF7FD
:10149000AFFBFFF72BFD07B2A4F84C70606E400362
:1014A000FFF75AFC5146FFF7A3FB5A49FFF7A0FB91
:1014B000FFF71CFD06B2A4F86860574D4846FFF7D9
:1014C0004BFC28604046FFF747FC68603846FFF752
:1014D00043FCA8603046FFF73FFCE8604F4DB4F98D
:1014E0001600FFF739FC2860B4F93200FFF734FC2E
:1014F0006860B4F94E00FFF72FFCA860B4F96A00E9
:10150000FFF72AFCE86000245AE045494846FFF707
:10151000C5FC00283FF431AF394A1369013B136120
:101520002BE7374BB3F9369036493046FEF740FE8D
:1015300007464846FFF710FC3946FFF757FB384986
:10154000FFF7ACFC00283FF42EAF2D4AD36A013BD5
:10155000D36228E732494846FFF7A0FC00283FF451
:1015600040AF274A936C013B93643AE72C492046ED
:10157000FFF794FC00283FF455AF214A536E013B1E
:1015800053664FE7342504FB05F5244B53F824201C
:10159000214B53F824102348284400F0F1FB064661
:1015A000C4EBC402164B03EB8203B3F90600FFF74A
:1015B000D3FB024631461C48284400F0E1FB0134CD
:1015C000032CDFDD184B1F6B5C6ED3F89850D3F8FB
:1015D000CC00FFF78BFC06B22846FFF787FC05B26C
:1015E0002046FFF783FC04B23846FFF77FFC334602
:1015F0002A46214600B200F071FABDE8F08700BF2C
:1016000050020020B005B6410078BD4500E80A460A
:101610000028094600389545A401002094010020C7
:10162000000080C5C00200209003002008B5002300
:101630001A461946184600F023FA08BD08B50023DB
:101640001A461946184600F049FA00231A46194668
:10165000184600F015FA08BD0346104605E013F8D9
:10166000011B41400348405C11464A1E0029F6D147
:10167000704700BFE863000870B138B5054602291D
:101680000CD94C1EFF222146FFF7E6FF2B5D83425B
:1016900014BF0020012038BD002070470020FAE769
:1016A000034690B1481E91B110B413F8011B51408C
:1016B000C9B2084C34F8111081EA122201460138EF
:1016C0000029F2D1104610BC70474FF6FF72104649
:1016D000704700BFE8610008D8B170B50C460646F7
:1016E000022918D98D1E0D4B1A882946FFF7D8FFFD
:1016F000735DC2B29A4201D0002070BDC0F30F20CA
:10170000331913F8013C984201D00020F5E701207D
:10171000F3E7002070470020EFE700BF0000002043
:101720002DE9F04F8BB088461446FEF747FF8146FF
:101730008A462046FEF742FF06460F4654A3D3E9E9
:101740000023FEF7A5FFCDE9040102460B46CDE9D3
:10175000029A48465146FEF7E3FD02460B46CDE9A4
:1017600006234FF0000A4FF0804B52465B4603F0D1
:10177000F9FA04460D464046FEF720FFCDE9000188
:1017800045A3D3E9002330463946FEF781FF804662
:10179000894602460B46DDE90001FEF7C3FD02461D
:1017A0000B46CDE9082352465B4603F0DBFA0246BE
:1017B0000B4620462946FEF7B5FD03F041FBFFF737
:1017C00079F905B252465B46DDE9060103F0CAFA33
:1017D00006460F4642464B46DDE90001FEF7A0FDF6
:1017E00002460B46CDE9002352465B4603F0BAFAA7
:1017F00002460B4630463946FEF794FD03F020FBC7
:10180000FFF758F904B2DDE90423DDE90201FEF730
:1018100089FD06460F4652465B4603F0A3FA804612
:10182000894652465B46DDE9000103F09BFA024619
:101830000B4640464946FEF775FD03F001FBFFF7F6
:1018400039F90FFA80F852465B463046394603F0C4
:1018500089FA06460F4652465B46DDE9080103F069
:1018600081FA02460B4630463946FEF75BFD03F02F
:10187000E7FAFFF71FF96B4262421BB212B201B2E4
:101880004046FFF70BFD0BB0BDE8F08FAFF30080D3
:10189000FE41CB6E9EA0E63F9835335E9EA0E63FAC
:1018A0002DE9F04F87B0824614464842FEF786FE87
:1018B000804689462046FEF781FE04460D4642A337
:1018C000D3E90023FEF7E4FE06460F4602460B4628
:1018D00040464946FEF726FDCDE900015046FEF799
:1018E0006DFE82468B463AA3D3E900232046294663
:1018F000FEF7CEFE03460C46CDE9043402460B4605
:10190000CDE902AB50465946FEF70CFD82468B46A8
:1019100002460B46DDE9000103F022FA2EA3D3E9CB
:101920000023FEF7B5FEFFF70DF905462C4C2060AD
:1019300032463B4640464946FEF7F2FC8046894621
:1019400052465B4603F00CFA23A3D3E90023FEF7CB
:101950009FFEFFF7F7F882466060DDE90423DDE9CA
:101960000201FEF7DDFC06460F4602460B46DDE9A6
:10197000000103F0F5F918A3D3E90023FEF788FE70
:10198000FFF7E0F88346A06032463B4640464946B2
:1019900003F0E6F910A3D3E90023FEF779FEFFF781
:1019A000D1F80346E0605A4651462846FFF7C6FC88
:1019B0002068FFF79BFA0028B8BF4042094B188007
:1019C00007B0BDE8F08F00BFFE41CB6E9EA0E63FA2
:1019D0009835335E9EA0E63F00000020DCA54C4019
:1019E000C8010020C601002010B58AB0002412E012
:1019F0000123089305940023049300930193039318
:101A00000293069307930E2309936946084801F051
:101A1000FDF80134E4B20D2CEAD9054C204601F062
:101A200093F90221204601F000FB0AB010BD00BF6F
:101A30008406002010B58AB0012308930E22059277
:101A4000049344F2A002009244F2C002019244F2D4
:101A5000E00202924FF4824203920693002307931E
:101A6000064C6946204601F0D1F8204601F06CF999
:101A70001021204601F0D9FA0AB010BD5C06002002
:101A800010B588B04FF40074029408240694002422
:101A90000494059404128DF800408DF8010008129A
:101AA0008DF802008DF8031011128DF804108DF8D6
:101AB00005201A128DF806208DF80730064801F02F
:101AC000E6F908B908B010BD01236A4602A9024828
:101AD00001F068F9F6E700BF8406002010B588B071
:101AE0004FF4FF740294082406940024049405948F
:101AF00004128DF800408DF8010008128DF80200E4
:101B00008DF8031011128DF804108DF805201A12AB
:101B10008DF806208DF80730064801F0B8F908B9AD
:101B200008B010BD02236A4602A9024801F03AF942
:101B3000F6E700BF5C06002010B588B040F2112423
:101B400002940824069400240494059404128DF849
:101B500000408DF8010008128DF802008DF8031086
:101B600011128DF804108DF805201A128DF8062038
:101B70008DF80730064801F08AF908B908B010BDA1
:101B800002236A4602A9024801F00CF9F6E700BFF9
:101B90008406002010B588B040F205240294082481
:101BA000069400240494059404128DF800408DF8E6
:101BB000010008128DF802008DF8031011128DF843
:101BC00004108DF805201A128DF806208DF80730C4
:101BD000064801F05CF908B908B010BD02236A4656
:101BE00002A9024801F0DEF8F6E700BF84060020F3
:101BF00000B58BB00268294B9A4232D0039B40F269
:101C00000112934233D0B3F5807F27D9A3F201228A
:101C1000032A23D8DBB2013BDBB29DF804209DF8F8
:101C2000050040EA02201E49C3EBC30201EB820219
:101C300090809DF806C09DF8070040EA0C20D080F7
:101C40009DF808C09DF8090040EA0C2010819DF81D
:101C50000A20C3EBC30301EB83018A720BB05DF86A
:101C600004FB01AB03AA002101F02AF9C6E79DF8A5
:101C700004309DF8052042EA03220A4B1A809DF8A1
:101C800006109DF8072042EA01225A809DF80810AC
:101C90009DF8092042EA01229A80DFE700640040B3
:101CA000E0010020D801002000B58BB002682E4B67
:101CB0009A4246D0039BA3F20522032A3ED8DBB208
:101CC000053BDBB29DF804109DF8052042EA012295
:101CD0000FFA82FCC3EBC300244901EB80018A8028
:101CE0009DF806E09DF8070040EA0E20C8809DF8A8
:101CF00008E09DF8090040EA0E2008819DF80A00DE
:101D00008872B1F91810891AB1F5805F1FDDC3EB35
:101D1000C300164901EB8001C8680130C86013494F
:101D2000C3EBC30001EB8000A0F818C0C06802EB51
:101D30004032C3EBC30301EB8301CA820BB05DF8F1
:101D400004FB01AB03AA012101F0BAF8B2E711F5D7
:101D5000805FE4DAC3EBC300044901EB8001C8688B
:101D60000138C860DBE700BF006800405002002077
:101D7000016042608360009BC360019B0361704708
:101D80002DE9F8430446084611466061A261D4F883
:101D90001C80C4F82080FEF729FF0546E061216819
:101DA000FEF706FA07466062A66A61682846FEF7F3
:101DB000FFF901463046FEF71BFF0646A062D4F845
:101DC000089041462846FEF711FF01464846FEF7B7
:101DD000EFF90546E062D4F80C9009F1004841465D
:101DE0003046FFF765F828B949463046FFF76AF8EC
:101DF000E8B1C846C4F8288041463846FEF7F8FEE8
:101E000001462846FEF7F4FE05462063276907F1E0
:101E100000463146FFF74CF828B939462846FFF707
:101E200051F830B13E4626633046BDE8F883B046EF
:101E3000E0E72E46F7E700002DE9F04182B00024EC
:101E40000DE00022284B01930093134627494FF0E1
:101E5000340C27480CFB0400FFF78AFF0134032CE5
:101E6000EFDD00244FF07E56224DDFF88C80CDF858
:101E70000480224F00972346224631462846FFF72A
:101E800077FFCDF80480009723462246314605F1BE
:101E90003400FFF76DFFCDF80480009723462246FB
:101EA000314605F16800FFF763FFCDF80480009725
:101EB00023462246314605F19C00FFF759FF0024D6
:101EC0000DE000220E4B0193009313460D494FF095
:101ED000340C0D480CFB0400FFF74AFF0134032CBF
:101EE000EFDD02B0BDE8F08100007A4600007042EC
:101EF00090030020C00200200000C8420000C8C2B9
:101F00000060EA460000704160040020002800F0F4
:101F1000E88070B500250446724B0068186022798D
:101F20001A712378A52B07D005F10903E018E35CAB
:101F3000A52B00F0D38070BDA278637843EA022518
:101F400005212046FFF798FB0028EDD005F1090197
:101F50002046FFF7C1FB0028E6D0A279637943EA67
:101F600002231BB2B3F5027FDEDCB3F5007F09DD8F
:101F7000A3F20123072BD7D8DFE803F065707B8439
:101F80008C91959F0C2B1FDC002BCDDD013B0B2B87
:101F9000CAD801A252F823F0E71F0008FF1F00086B
:101FA00007200008291F0008291F0008291F000812
:101FB000291F0008291F0008291F0008291F0008E1
:101FC000291F0008CB200008B3F5817F2FD0B3F57F
:101FD000827F31D040F201129342A5D1D4F807207C
:101FE000414B1A60A0E7414BD4F80700D4F80B101E
:101FF00003C3B4F80F10627C19809A7094E7E279F9
:102000003B4B1A7090E73B4ED4F80700D4F80B1006
:10201000D4F80F20D4F813300FC6D4F81700D4F832
:102020001B10D4F81F20D4F823300FC67CE7D4F857
:102030000720314B1A6077E7304BB4F80710627A0B
:1020400019809A7070E72E4BD4F80700D4F80B1063
:10205000D4F80F2007C3E27C1A7065E7294ED4F844
:102060000700D4F80B10D4F80F20D4F813300FC6A3
:102070005AE7254BD4F80700D4F80B10D4F80F20FA
:1020800007C351E7214BD4F807001860B4F80B20C0
:102090009A8049E7B4F807201D4B1A8044E7E2799B
:1020A0001C4B1A7040E71C4BD4F807001860B4F8BA
:1020B0000B10627B99809A7136E7184BD4F80700B1
:1020C0001860B4F80B209A802EE7154BD4F807005F
:1020D000D4F80B10D4F80F2007C325E7FFF716FF3D
:1020E00029E7704730050020240600204C06002018
:1020F0004806002028060020200600201C0600209C
:102100000C060020FC050020F0050020E80500205A
:10211000E4050020E0050020D8050020D0050020BF
:10212000C405002038B5094C094D4FF48072214692
:10213000284602F09BFBEB6B1A68136823F0080338
:1021400013602046FFF7E2FE38BD00BF38050020CF
:102150008007002010B5074C4FF4807206492046D6
:1021600002F084FBE36B1A68136823F00803136022
:1021700010BD00BF800700203805002010B588B0D2
:102180004FF4817402940824069400240494059466
:1021900004128DF800408DF8010008128DF802003D
:1021A0008DF8031011128DF804108DF805201A1205
:1021B0008DF806208DF80730064800F068FE08B953
:1021C00008B010BD02236A4602A9024800F0EAFDE9
:1021D000F6E700BF8406002008B50E480E4B0360EA
:1021E0000323436000238360C3604FF40022026135
:1021F0004FF4401242610376012242768376C37621
:102200000377437700F05CFC00B908BD00F0A0F94B
:10221000FBE700BF840600200064004008B50E48BC
:102220000E4B03600323436000238360C3604FF4BD
:10223000002202614FF4401242610376012242768D
:102240008376C3760377437700F03AFC00B908BD84
:1022500000F07EF9FBE700BF5C060020006800404C
:1022600010B58AB00023059306930793089309934A
:102270000368464A934204D0454A93423CD00AB090
:1022800010BD444A136801331360012B27D000248A
:102290000194414B1A6B42F008021A631B6B03F066
:1022A00008030193019B03230593022206920893DE
:1022B0000923099305A9394801F0D8FA2246214695
:1022C000132001F04BF8132001F058F82246214664
:1022D000142001F043F8142001F050F8CFE7002358
:1022E00000932D4B1A6C42F000721A641B6C03F0C1
:1022F00000730093009BCAE700230293264B1A6CDD
:1023000042F080621A641B6C03F080630293029BAC
:10231000204A136801331360012B29D00024049450
:102320001D4B1A6B42F002021A631B6B03F002038F
:102330000493049B4FF44053059302230693032315
:1023400008930923099305A9154801F08FFA22463D
:1023500021463F2001F002F83F2001F00FF822460D
:102360002146412000F0FAFF412001F007F886E7FE
:1023700000230393084B1A6C42F000721A641B6C22
:1023800003F000730393039BC8E700BF00640040A1
:10239000006800405806002000380240000C02404F
:1023A0000004024010B582B000240094124B1A6B56
:1023B00042F480021A631A6B02F480020092009ABF
:1023C00001941A6B42F400121A631B6B03F400139E
:1023D0000193019B22462146102000F0BFFF1020F0
:1023E00000F0CCFF224621463A2000F0B7FF3A2009
:1023F00000F0C4FF02B010BD003802402DE9F041EA
:102400008CB000240794089409940A940B940194C6
:10241000384B1A6B42F001021A631A6B02F0010288
:102420000192019A02941A6B42F002021A631A6B2B
:1024300002F002020292029A03941A6B42F008021E
:102440001A631A6B02F008020392039A04941A6B3F
:1024500042F080021A631A6B02F080020492049A1E
:1024600005941A6B42F010021A631A6B02F0100204
:102470000592059A06941A6B42F020021A631B6BB0
:1024800003F020030693069BDFF86C8022463C2174
:10249000404601F0F1FA194F22464FF400613846E8
:1024A00001F0EAFA164E22464FF48041304601F020
:1024B000E3FA3C2307930125089509940A9407A998
:1024C000404601F0D3F94FF400630793089509944F
:1024D0000A9407A9384601F0C9F94FF480430793DD
:1024E000089509940A9407A9304601F0BFF90CB089
:1024F000BDE8F08100380240001C0240001002409C
:102500000014024038B504460D490E48FEF712FE8D
:102510000D4B9C4203D00D4B9C420DD038BD1D4647
:1025200012220849184602F0A1F9EB6B1A681368E9
:1025300023F008031360EEE7FFF7F4FDEEE700BFBA
:1025400080010020AC060020C80700208007002082
:1025500072B6FEE700B595B03022002108A802F05F
:1025600017FB0023039304930593069307930193AA
:10257000204A116C41F080511164126C02F08052BB
:102580000192019A02931C4B1A6842F440421A606D
:102590001B6803F440430293029B012308934FF40A
:1025A0008033099302230E934FF480020F92062288
:1025B0001092A822119212930423139308A801F0F9
:1025C00061FA98B90F230393022304930023059320
:1025D0004FF4A05306934FF480530793052103A8AB
:1025E00001F0A0FC20B915B05DF804FBFFF7B0FFC7
:1025F000FFF7AEFF0038024000700040000000000E
:1026000000B587B000F01CFAFFF7A4FFFFF7F6FE55
:10261000FFF7C8FEFFF7E0FDFFF700FE00F0C6F889
:1026200000F0E2F801223C21274801F025FAFFF7EB
:10263000DBF9FFF7FFF9FFF7FFFBFEF7BDFDFFF743
:1026400089FD2248FEF7CAFD214C6088A0F5806014
:10265000FDF7B4FF1AA3D3E90023CDE90423002238
:102660001C4BCDE9022300221B4BCDE900230022A5
:102670000023FEF7E9FDFEF745FA81B2174E3180DF
:10268000174D637A227A09B2B5F90000FFF754FAC0
:10269000637A227AB6F90010B5F90000FFF77AFAEA
:1026A000104B5868FEF722FC00B203460246014672
:1026B000FFF764FD012000F0EFF9C2E7AFF30080FF
:1026C0000000000000206040001C02407801002053
:1026D0008001002000805F4000F08440C4010020A1
:1026E000C6010020FC05002082B0002100910B4BA8
:1026F0005A6C42F480425A645A6C02F4804200924E
:10270000009A01911A6C42F080521A641B6C03F01B
:1027100080530193019B02B0704700BF0038024014
:10272000FEE7FEE7FEE7FEE7FEE77047704770470B
:1027300008B500F09FF908BD08B5024800F0A8FFF1
:1027400008BD00BFC006002008B5024800F08AFCA2
:1027500008BD00BF8406002008B5024800F082FCD6
:1027600008BD00BF8406002008B5024801F08EFEB7
:1027700008BD00BF8007002008B5024800F088FFB0
:1027800008BD00BF2007002008B5024800F06AFC21
:1027900008BD00BF5C06002008B5024800F062FCDE
:1027A00008BD00BF5C0600207047000008B50B485C
:1027B0000B4B03600B4B43604FF48053836000234B
:1027C000C36003610C2242618361C36101F076FD45
:1027D00000B908BDFFF7BCFEFBE700BFC80700203B
:1027E00000100140A086010008B50A480A4B0360AA
:1027F0004FF4E133436000238360C36003610C2224
:1028000042618361C36101F059FD00B908BDFFF762
:102810009FFEFBE780070020004400402DE9F041C7
:102820008AB00446002305930693079308930993FF
:102830000368514A934205D0504A934258D00AB097
:10284000BDE8F081002500954D4B5A6C42F0100216
:102850005A645A6C02F010020092009A01951A6BA9
:1028600042F002021A631A6B02F002020192019A0C
:1028700002951A6B42F001021A631B6B03F001030D
:102880000293029B802305934FF00208CDF8188035
:10289000032708970726099605A93A4800F0E6FF9E
:1028A0004FF400730593CDF81880079508970996A3
:1028B00005A9354800F0DAFF3448354B03604FF086
:1028C000006343608560C5604FF4806303614561C8
:1028D0008561C5614FF440330362456200F0E0FD5D
:1028E00018B92A4BE3639C63A9E7FFF731FEF8E7C9
:1028F00000250395224B1A6C42F400321A641A6CBC
:1029000002F400320392039A04951A6B42F0080213
:102910001A631B6B03F008030493049B6023059365
:1029200002230693032308930723099305A9194853
:1029300000F09CFF1848194B03604FF000634360A0
:102940008560C5604FF48063036145618561C56141
:102950000562456200F0A4FD58B90F4BE3639C6328
:1029600000221146262000F0F9FC262000F006FD8A
:1029700065E7FFF7EDFDF0E700100140004400407F
:1029800000380240000402400000024020070020FE
:1029900040640240000C0240C006002088600240F3
:1029A000DFF834D0FFF700FF0C480D490D4A002333
:1029B00002E0D458C4500433C4188C42F9D30A4AF4
:1029C0000A4C002301E013600432A242FBD302F060
:1029D00037F9FFF715FE70470000032000000020C4
:1029E0005C0100209C6500085C010020E40A0020D6
:1029F000FEE7000010B504460E4B1A784FF47A73C8
:102A0000B3FBF2F30C4A1068B0FBF3F000F0BAFC31
:102A100068B90F2C01D901200AE0002221464FF0AD
:102A2000FF3000F09BFC054B1C60002000E0012003
:102A300010BD00BF08000020040000200C00002092
:102A400008B50B4B1A6842F400721A601A6842F417
:102A500080621A601A6842F480721A60032000F0E3
:102A60006BFC0F20FFF7C6FFFFF73EFE002008BDFE
:102A7000003C0240034A1168034B1B780B4413606F
:102A8000704700BF1008002008000020014B1868A4
:102A9000704700BF1008002038B50446FFF7F6FF66
:102AA0000546B4F1FF3F02D0044B1B781C44FFF7EE
:102AB000EDFF401BA042FAD338BD00BF0800002044
:102AC000002800F0A18038B5044690F82030D3B13A
:102AD0002268136843F001031360FFF7D7FF054630
:102AE00023685A6812F0010F10D1FFF7CFFF401B87
:102AF0000A28F5D9636A43F400336362052384F836
:102B00002030012038BDFFF7ABFBE1E71A6822F067
:102B100002021A60FFF7BAFF054623685A6812F0EE
:102B2000020F0DD0FFF7B2FF401B0A28F5D9636AE8
:102B300043F400336362052384F820300120E1E789
:102B4000227E012A3DD01A6822F080021A60637E3C
:102B5000012B3BD02268136823F040031360A37E4F
:102B6000012B39D02268136823F020031360E37E21
:102B7000012B37D02268136843F010031360237FC2
:102B8000012B35D02268136823F008031360637F9C
:102B9000012B33D02268136823F004031360A36869
:102BA000E268134322691343626913436268013A7E
:102BB00021681343CB6100206062012384F8203038
:102BC000A0E71A6842F080021A60C0E72268136822
:102BD00043F040031360C2E72268136843F0200308
:102BE0001360C4E72268136823F010031360C6E77C
:102BF0002268136843F008031360C8E7226813686B
:102C000043F004031360CAE70120704790F82030B6
:102C1000013BDBB2012B05D9436A43F480234362B5
:102C20000120704710B5474BD3F8002242F0010253
:102C3000C3F80022D3F8002222F47C52C3F8002209
:102C4000D3F80022486A42EA0022C3F800224A6907
:102C500002F01F02012000FA02F2D3F81C026FEA10
:102C6000020C20EA0200C3F81C02CB69CBB9354B39
:102C7000D3F80C020CEA0000C3F80C028C884869F7
:102C8000D1F80CE044EA0E44483043F830408C68F8
:102C9000088840EA04404C6904F1480E03EBCE0377
:102CA0005860CB69012B1ED08B69002B35D125488C
:102CB000D0F804320CEA0303C0F804320B699BBB62
:102CC0002048D0F814320CEA0303C0F814320B6A1F
:102CD000012B30D01B4AD2F8003223F00103C2F896
:102CE0000032002010BD174BD3F80C021043C3F87C
:102CF0000C028C884869D1F800E044EA0E44483060
:102D000043F8304088894C69D1F808E040EA0E4029
:102D1000483403EBC4035860C6E70A48D0F80432CD
:102D20001343C0F80432C9E70648D0F814321343FD
:102D3000C0F81432CBE70349D1F81C321343C1F871
:102D40001C32C7E70064004070B5044690F820507C
:102D5000EDB2012D06D0436A43F4002343620125FE
:102D6000284670BD022380F820300268136823F0E3
:102D700001031360FFF78AFE064623685B6813F0C1
:102D8000010F0CD0FFF782FE831B0A2BF5D9636A73
:102D900043F400336362052384F82030E0E7002524
:102DA0006562DDE730B590F820C00468A4680CF1D6
:102DB000FF3C5FFA8CFCBCF1010F62D814F0E05FBD
:102DC00059D0C4F3016C012404FA0CF41C608B6824
:102DD000002B3DD10D68CB68046843EA45550CF1E2
:102DE00018031B01E55003680C690CF1180E03EB86
:102DF0000E135C600B7D012B35D0D17993791B04C8
:102E000043EA0163517943EA0123147901682343BA
:102E100001EB0C11C1F88C31D17893781B0443EA93
:102E20000163517843EA0123117802680B4302EBF6
:102E30000C12C2F8883102680CF1180C4FEA0C1C15
:102E400052F80C3043F0010342F80C3000201DE032
:102E50004C6843EAC403CC6823430CF118042401F2
:102E600005682B51BFE7036803EB0E13596841F463
:102E700080715960C1E7436A43F400134362012043
:102E800004E0436A43F480234362012030BD90F89C
:102E90002030013BDBB2012B01D9002070470368D1
:102EA000986810F0806000D001209A6812F0006FDE
:102EB00000D001309B6813F0805FEFD00130704785
:102EC00090F820C00CF1FF3C5FFA8CFCBCF1010FC4
:102ED00000F2A58030B451B90468E46814F0030F1F
:102EE00010D1436A43F40013436201207EE004687A
:102EF000246914F0030F05D1436A43F400134362BD
:102F0000012073E0056801F11B0424012C5904F031
:102F100004049460002C6BD1056801F11B042401AA
:102F20002C59640D1460046801F11B0C4FEA0C1C51
:102F300054F80C4004F00204D4600468A444DCF8A3
:102F4000045015F0080F5BD008241461046801F1E7
:102F50001B0C04EB0C146468C4F30724946104682C
:102F600004EB0C146468240C5461026802EB011237
:102F7000D2F8B8211A70026802EB0112D2F8B82117
:102F8000C2F307225A70026802EB0112D2F8B8218C
:102F9000C2F307429A70026802EB0112D2F8B8211C
:102FA000120EDA70026802EB0112D2F8BC211A711B
:102FB000026802EB0112D2F8BC21C2F307225A7157
:102FC000026802EB0112D2F8BC21C2F307429A71E7
:102FD000026802EB0112D2F8BC21120EDA71C1B9FB
:102FE0000268D36843F02003D360002030BC7047F0
:102FF000056801F11B0424012C59E408546092E790
:1030000001F11B0504EB0514646804F00F0414615E
:103010009CE70268136943F020031361E5E7436A04
:1030200043F4802343620120704790F82030013B35
:10303000DBB2012B05D9436A43F4802343620120AC
:103040007047026853690B43536100207047704713
:1030500070477047704770477047704770477047B8
:10306000704770472DE9F84F054603685C69D3F84F
:1030700004809F68D3F80CA0D3F81090D3F818B050
:1030800014F001063BD017F0010616D001229A6019
:1030900017F0020F08D117F0040F0CD117F0080633
:1030A00006D04FF4805608E0FFF7D1FF002604E079
:1030B000FFF7D0FF01E04FF4006617F4807F0DD0DA
:1030C0002B684FF480729A6017F4007F40F096806E
:1030D00017F4806F00F0968046F4005617F4803F96
:1030E0000DD02B684FF480329A6017F4003F40F007
:1030F000938017F4802F00F0938046F4004614F07C
:10310000080F07D01AF0100F04D046F400762B6891
:103110001022DA6014F0040F03D01AF0080F40F008
:10312000898014F0020F05D02B68DB6813F0030FC1
:1031300040F0878014F0400F07D019F0100F04D032
:1031400046F480662B6810221A6114F0200F02D01A
:1031500019F0080F79D114F0100F04D02B681B69F7
:1031600013F0030F78D114F4003F02D018F0100FC1
:1031700076D114F4803F02D018F0080F77D114F400
:10318000004F37D018F0040F31D014F4807F04D0F2
:103190001BF0010F01D046F0010614F4007F04D0AB
:1031A0001BF0020F01D046F0020614F4806F04D029
:1031B0001BF0040F01D046F0040614F4006F16D083
:1031C0001BF0700B13D0BBF1400F66D056D8BBF18B
:1031D000200F5CD0BBF1300F5CD0BBF1100F01D1E0
:1031E00046F008062A68936923F0700393612B6800
:1031F00004225A60002E56D1BDE8F88F2846FFF70A
:1032000027FF6BE717F4006F02D046F4804665E7AE
:103210002846FFF720FF61E72846FFF71AFF6EE711
:1032200017F4002F02D046F4803668E72846FFF7EF
:1032300013FF64E72B680822DA602846FFF70DFFCA
:103240006FE72846FEF7D4FC74E72B6808221A6162
:103250002846FFF703FF7EE72846FEF725FD82E7B5
:103260002B6810225A602846FFF7F9FE81E72B6889
:1032700008225A602846FFF7F3FE80E7BBF1500FA3
:103280000ED0BBF1600FADD146F48076AAE746F0D0
:103290001006A7E746F02006A4E746F04006A1E79F
:1032A00046F080069EE76B6A33436B622846FFF761
:1032B000D8FEA1E7002807DB00F01F024009012328
:1032C0009340024A42F82030704700BF00E100E01E
:1032D000002808DB0901C9B200F1604000F5614037
:1032E00080F80013704700F00F000901C9B2014BCC
:1032F0001954704714ED00E000B500F00700C0F16C
:10330000070CBCF1040F28BF4FF0040C031D062B63
:103310000FD9C31E4FF0FF3E0EFA0CF021EA000158
:1033200099400EFA03FE22EA0E0241EA02005DF81D
:1033300004FB0023EEE70000074AD36823F4E063B0
:103340001B041B0C000200F4E060034343F0BF6366
:1033500043F40033D360704700ED00E010B504463D
:10336000054BD868C0F30220FFF7C6FF0146204690
:10337000FFF7AEFF10BD00BF00ED00E008B5FFF79E
:1033800099FF08BD0138B0F1807F0BD24FF0E023E8
:103390005861054AF02182F8231000209861072225
:1033A0001A6170470120704700ED00E030B40568F5
:1033B0002C6824F480242C60046863608368402BAC
:1033C00005D0036899600368DA6030BC7047036811
:1033D0009A600368D960F8E710B40368D9B210396D
:1033E000094AA2FB01421209084CA25CC2655F298E
:1033F00006D96FF3090304338365806D10BC7047F1
:103400006FF309038365F8E7ABAAAAAA0065000871
:10341000836A826992B9012B0AD0022B02D00BB1C8
:1034200000207047C36A13F0807F28D100207047C6
:10343000C36AB3F1C07F24D000207047B2F5005FAB
:1034400009D0022B25D9032B25D1C36A13F0807F25
:1034500023D100207047032B03D8DFE803F01404C6
:10346000140A00207047C36A13F0807F0DD100203A
:103470007047C36AB3F1C07F09D0002070470120B4
:1034800070470120704701207047012070470120DC
:1034900070470120704700207047012070470000EE
:1034A00070B50446FFF7F2FA002C5BD00546022304
:1034B00084F83530002384F834302268136823F010
:1034C0000103136023681A6812F0010F0AD0FFF796
:1034D000DDFA431B052BF5D920236365032084F80F
:1034E000350070BD1A68204911406268A068024327
:1034F000E06802432069024360690243A069024315
:10350000E0690243206A02430A43616A04291ED02B
:103510001A602668756925F00705636A1D43042B48
:1035200007D1A36A1D43E36A1BB12046FFF770FF72
:1035300090B975612046FFF74FFFE26D3F2393403E
:10354000836000206065012384F83530C9E7E16AB3
:10355000206B01430A43DBE740236365012084F8C5
:103560003500BEE70120BCE73F8010F038B50446C7
:10357000856D90F8340001282BD0012084F83400A8
:1035800094F83500C0B2012804D0002384F8343008
:10359000022038BD022084F83500002060652046F6
:1035A000FFF704FFE26D3F239340AB60226813688E
:1035B00043F016031360236C23B12268136843F0B1
:1035C000080313602268136843F0010313600020AE
:1035D000DFE70220DDE770B50446866DFFF756FA97
:1035E00094F83530DBB2022B06D0802363650023CC
:1035F00084F83430012070BD05462268136823F03A
:10360000160313602268536923F080035361236C0F
:10361000E3B12268136823F008031360226813687B
:1036200023F00103136023681B6813F0010F11D00E
:10363000FFF72CFA431B052BF5D9202363650320E4
:1036400084F83500002384F83430D4E7A36C002BD1
:10365000DFD1E3E7E26D3F239340B360012384F8B9
:103660003530002084F83400C5E790F83530DBB2FF
:10367000022B03D08023436501207047052380F887
:1036800035300268136823F001031360002070478F
:10369000F0B583B0044600230193724B1D68724B52
:1036A000A3FB0535AD0A876D3E68C26D08239340C4
:1036B000334210D003681A6812F0040F0BD01A6856
:1036C00022F004021A60C26D08239340BB60436D70
:1036D00043F001034365E26D01239340334209D077
:1036E0002268526912F0800F04D0BB60636D43F012
:1036F00002036365E26D04239340334209D02268DC
:10370000126812F0020F04D0BB60636D43F0040333
:103710006365E26D10239340334224D0226812681F
:1037200012F0080F1FD0BB6023681A6812F4802FB4
:103730000DD01B6813F4002F04D1236C9BB12046DD
:10374000984710E0A36C73B1204698470BE01A68C5
:1037500012F4807F03D11A6822F008021A60236CE9
:103760000BB120469847E26D20239340334255D059
:103770002268126812F0100F50D0BB6094F83530F8
:10378000DBB2052B0ED023681A6812F4802F33D0D9
:103790001B6813F4002F2AD1636C002B3ED0204607
:1037A00098473BE02268136823F0160313602268F1
:1037B000536923F080035361236CA3B1226813681B
:1037C00023F008031360E26D3F239340BB600123A5
:1037D00084F83530002384F83430236D002B3FD03B
:1037E000204698473CE0A36C002BE7D1EBE7E36B66
:1037F000A3B12046984711E01A6812F4807F09D1DE
:103800001A6822F010021A60012384F83530002370
:1038100084F83430E36B0BB120469847636DFBB1FD
:10382000636D13F0010F17D0052384F8353022683B
:10383000136823F001031360019B01330193AB4232
:1038400004D823681B6813F0010FF5D1012384F815
:103850003530002384F83430E36C0BB120469847B0
:1038600003B0F0BD04000020B5814E1B00230F2BD8
:1038700000F2F98030B583B069E085684FEA430E05
:10388000032404FA0EF425EA0405CC6804FA0EF4C5
:103890002C438460446824EA02044A68C2F300129C
:1038A0009A402243426060E0DC08083450F824204B
:1038B00003F00705AD004FF00F0E0EFA05FE22EAE9
:1038C0000E0E0A69AA4042EA0E0240F8242060E087
:1038D000092200E0002202FA0EF22A430234624D6D
:1038E00045F82420614A94686FEA0C0224EA0C052A
:1038F000D1F804E01EF4801F01D04CEA04055B4CB3
:10390000A560E46802EA0405D1F804E01EF4001F93
:1039100001D04CEA0405554CE560646802EA0405F0
:10392000D1F804E01EF4003F01D04CEA04054F4CEE
:103930006560246822404D6815F4803F01D04CEA50
:1039400004024A4C226001330F2B00F28A800122CC
:103950009A400C6804EA020C32EA0404F3D14C6881
:1039600004F00304013C012C87D94A6802F00302E9
:10397000032A09D0C4685D000322AA4024EA020495
:103980008A68AA402243C2604A6802F00302022AFF
:103990008AD004684FEA430E032202FA0EF224EAA8
:1039A00002044A6802F0030202FA0EF222430260A5
:1039B0004A6812F4403FC6D0002201922C4A546C4F
:1039C00044F480445464526C02F480420192019A9F
:1039D0009C08A51C244A52F8255003F0030E4FEA18
:1039E0008E0E0F2202FA0EF225EA0205214A9042BB
:1039F0003FF470AF02F58062904222D002F58062FF
:103A0000904220D002F5806290421ED002F5806282
:103A100090421CD002F5806290421AD002F580627A
:103A2000904218D002F58062904216D002F5806272
:103A3000904214D002F5806290423FF449AF0A22CE
:103A400049E7012247E7022245E7032243E7042230
:103A500041E705223FE706223DE707223BE7082230
:103A600039E703B030BD704700380140003C0140E9
:103A700000380240000002400AB181617047090429
:103A800081617047002800F0E08170B582B0044683
:103A9000036813F0010F3BD09F4B9B6803F00C03AE
:103AA000042B2CD09C4B9B6803F00C03082B21D0DB
:103AB0006368B3F5803F4FD0B3F5A02F52D0964B3B
:103AC0001A6822F480321A601A6822F480221A607E
:103AD0006368002B50D0FEF7D9FF05468E4B1B685C
:103AE00013F4003F14D1FEF7D1FF401B6428F5D931
:103AF0000320B1E1884B5B6813F4800FD8D0864B6C
:103B00001B6813F4003F03D06368002B00F09F8113
:103B1000236813F0020F54D07F4B9B6813F00C0FF7
:103B20003ED07D4B9B6803F00C03082B33D0E36839
:103B3000002B68D0794B01221A60FEF7A7FF0546DB
:103B4000754B1B6813F0020F54D1FEF79FFF401B0B
:103B50000228F5D903207FE16F4A136843F48033CC
:103B60001360B5E76C4B1A6842F480221A601A6839
:103B700042F480321A60ABE7FEF788FF0546664BD9
:103B80001B6813F4003FC3D0FEF780FF401B64287E
:103B9000F5D9032060E1604B5B6813F4800FC6D158
:103BA0005D4B1B6813F0020F03D0E368012B40F05C
:103BB0005081594A136823F0F803216943EAC1038D
:103BC0001360236813F0080F42D063696BB3534B43
:103BD0000122C3F8802EFEF759FF05464E4B5B6F5E
:103BE00013F0020F34D1FEF751FF401B0228F5D924
:103BF000032031E1484A136823F0F803216943EABE
:103C0000C1031360DDE7454B00221A60FEF73EFF5B
:103C10000546414B1B6813F0020FD2D0FEF736FF6A
:103C2000401B0228F5D9032016E13C4B0022C3F8C3
:103C3000802EFEF72BFF0546374B5B6F13F0020F0C
:103C400006D0FEF723FF401B0228F5D9032003E12D
:103C5000236813F0040F77D02F4B1B6C13F0805F99
:103C600033D1002301932C4B1A6C42F080521A641A
:103C70001B6C03F080530193019B0125284B1B68AB
:103C800013F4807F23D0A368012B34D0052B38D0C8
:103C9000214B1A6F22F001021A671A6F22F00402F8
:103CA0001A67A368002B3DD0FEF7F0FE06461A4BBC
:103CB0001B6F13F0020F46D1FEF7E8FE801B41F2A6
:103CC00088339842F3D90320C6E00025D6E7144A8A
:103CD000136843F480731360FEF7D8FE0646104B5A
:103CE0001B6813F4807FCED1FEF7D0FE801B022824
:103CF000F5D90320B0E0084A136F43F001031367BE
:103D0000CFE7054B1A6F42F004021A671A6F42F0B0
:103D100001021A67C5E700BF0038024000004742B1
:103D200000700040FEF7B2FE0646524B1B6F13F0C8
:103D3000020F08D0FEF7AAFE801B41F2883398429A
:103D4000F3D9032088E0EDB9A369002B00F083804C
:103D5000484A926802F00C02082A51D0022B17D070
:103D6000454B00221A66FEF791FE0446414B1B6844
:103D700013F0007F42D0FEF789FE001B0228F5D920
:103D8000032069E03B4A136C23F080531364DBE7A4
:103D9000394B00221A66FEF779FE0546354B1B6843
:103DA00013F0007F06D0FEF771FE401B0228F5D904
:103DB000032051E0E369226A1343626A43EA8213F3
:103DC000A26A5208013A43EA0243E26A43EA026302
:103DD000284A5360284B01221A66FEF757FE044614
:103DE000244B1B6813F0007F06D1FEF74FFE001B2B
:103DF0000228F5D903202FE000202DE000202BE041
:103E0000012B2BD01B4B5B6803F48001E2699142CC
:103E100026D103F03F02216A8A4223D1616A47F624
:103E2000C0721A40B2EB811F1ED103F44031A26A66
:103E30005208013AB1EB024F18D103F07063E26A05
:103E4000B3EB026F14D1002006E00120704701207F
:103E500002E0012000E0002002B070BD0120FBE77D
:103E60000120F9E70120F7E70120F5E70120F3E75A
:103E70000120F1E7003802400000474208B5264B18
:103E80009B6803F00C03042B41D0082B41D1224B3B
:103E90005A6802F03F025B6813F4800F12D01E4B89
:103EA0005968C1F388111D480023A1FB0001FDF7EB
:103EB00043F8194B5B68C3F3014301335B00B0FB6C
:103EC000F3F008BD144B5868C0F388104FEA401C4B
:103ED000BCEB000C6EEB0E0E4FEA8E1343EA9C63B4
:103EE0004FEA8C11B1EB0C0163EB0E03DB0043EAEC
:103EF0005173C90011EB000C43F100039902002338
:103F00004FEA8C2041EA9C51FDF716F8D1E70348AF
:103F1000D7E70348D5E700BF00380240001BB700D1
:103F20000024F400002800F09B8070B50D46044684
:103F30004F4B1B6803F00F038B4208D2CBB24C4AA5
:103F40001370136803F00F038B4240F08B802368DB
:103F500013F0020F17D013F0040F04D0454A9368F2
:103F600043F4E0539360236813F0080F04D0414AF0
:103F7000936843F4604393603E4A936823F0F003F0
:103F8000A1680B439360236813F0010F32D063687C
:103F9000012B21D09A1E012A25D9364A126812F027
:103FA000020F61D033498A6822F0030213438B6009
:103FB000FEF76CFD06462F4B9B6803F00C0362680E
:103FC000B3EB820F16D0FEF761FD801B41F2883300
:103FD0009842F0D9032042E0264A126812F4003FCA
:103FE000E0D101203BE0234A126812F0007FD9D1D2
:103FF000012034E01E4B1B6803F00F03AB4207D9CE
:10400000EAB21B4B1A701B6803F00F03AB422DD1B1
:10401000236813F0040F06D0164A936823F4E05384
:10402000E1680B439360236813F0080F07D0114A2F
:10403000936823F46043216943EAC1039360FFF767
:104040001DFF0C4B9B68C3F303130B4AD35CD84092
:104050000A4B18600A4B1868FEF7CCFC002070BDB4
:10406000012070470120FAE70120F8E70120F6E778
:10407000003C024000380240F064000804000020C8
:104080000C000020014B1868704700BF040000209E
:1040900008B5FFF7F7FF044B9B68C3F38223034A7D
:1040A000D35CD84008BD00BF00380240E864000877
:1040B00008B5FFF7E7FF044B9B68C3F34233034A9D
:1040C000D35CD84008BD00BF00380240E864000857
:1040D000026802F10C0353E8003F23F0C0030C32E6
:1040E00042E800310029F3D1202380F841307047A5
:1040F000026802F10C0353E8003F23F490730C3282
:1041000042E800310029F3D1026802F1140353E8B8
:10411000003F23F00103143242E800310029F3D1BB
:10412000036B012B05D0202380F84230002303636A
:104130007047026802F10C0353E8003F23F01003BC
:104140000C3242E800310029F3D1ECE790F841301D
:10415000DBB2212B01D0022070478368B3F5805F6A
:1041600017D0036A5A1C02621A7803685A60C38C1B
:104170009BB2013B9BB2C3844BB90268D36823F066
:104180008003D3600268D36843F04003D36000200B
:1041900070470369002BE4D1036A1B880268C3F3EC
:1041A00008035360036A02330362E0E710B5044674
:1041B0000268136923F44053C1680B431361836899
:1041C00002691A4343691A43C3691A430168CB68F9
:1041D00023F4164323F00C031343CB6002685369A6
:1041E00023F4407381690B4353610368314A93425E
:1041F00006D002F58062934202D0FFF749FF01E04A
:10420000FFF756FFE369B3F5004F29D000210318EB
:1042100049411B1841F10001C90041EA5371DB001B
:10422000181863684FEA83024FEA937341F1000163
:10423000FCF782FE204AA2FB00314909642303FBFC
:1042400011031B013233A2FB03235B0903F0F002CD
:1042500002EB011203F00F03216813448B6010BDC1
:104260000023021843EB0301121841F10001C900B9
:1042700041EA5271D200101841F1000162689218AF
:104280005B41FCF759FE0C4AA2FB0031490964234B
:1042900003FB1103DB003233A2FB03235B095A004B
:1042A00002F4F87202EB011203F0070321681344D1
:1042B0008B60D4E7001001401F85EB5160B310B54F
:1042C000044690F8413013B3242384F84130226827
:1042D000D36823F40053D3602046FFF767FF2268BA
:1042E000136923F4904313612268536923F02A036E
:1042F00053612268D36843F40053D36000206064A4
:10430000202384F8413084F84230606310BD80F887
:104310004030FEF783FAD7E701207047704708B5B1
:104320000168CA6822F04002CA60202280F8412059
:10433000FFF7F4FF002008BD70477047704710B5C5
:10434000846B23685A6994F84130DBB2212B10D07A
:1043500023685A6902F0400294F84230DBB2222B03
:1043600011D0636C43F0100363642046FFF7E6FF4F
:1043700010BD02F08002002AEAD00023E384204628
:10438000FFF7A6FEE4E7002AEBD00023E3852046F2
:10439000FFF7AEFEE5E708B5806B0023C385C38455
:1043A000FFF7CCFF08BD90F84230DBB2222B69D179
:1043B0008368B3F5805F4FD0826AB3F5805F04D025
:1043C000002B56D10369002B53D103685B6813702F
:1043D000836A01338362C38D9BB2013B9BB2C38569
:1043E000002B51D100B583B00268D36823F02003BD
:1043F000D3600268D36823F48073D3600268536982
:1044000023F001035361202380F8423000234363EB
:10441000036B012B33D100230363026802F10C0309
:1044200053E8003F23F010030C3242E8003100292A
:10443000F3D103681A6812F0100F06D0002201921F
:104440001A6801925B680193019B818DFEF75AF80F
:10445000002003B05DF804FB0269002AACD1826A37
:1044600003685B68C3F308031380836A02338362C3
:10447000B1E703685B6803F07F031370A8E7FFF7F9
:104480005BFFE5E7022070470020704710B582B05F
:10449000044602681368D068516913F00F0F09D100
:1044A00013F0200F0CD010F0200F09D02046FFF79A
:1044B0007AFF16E011F0010115D110F4907F12D1AE
:1044C000216B012979D013F0800F03D010F0800FF9
:1044D00040F0148113F0400F03D010F0400F40F073
:1044E000118102B010BD13F0010F06D010F4807FCF
:1044F00003D0626C42F00102626413F0040F04D036
:1045000019B1626C42F00202626413F0020F04D02F
:1045100019B1626C42F00402626413F0080F07D014
:1045200010F0200F00D119B1626C42F008026264F1
:10453000626C002AD5D013F0200F02D010F0200FAB
:1045400029D123685B6903F04003626C12F0080F05
:1045500000D163B32046FFF7CBFD23685B6913F0FE
:10456000400F20D0226802F1140353E8003F23F0EB
:104570004003143242E800310029F3D1E36B73B1F8
:10458000624A1A65E06BFFF770F80028A9D0E06B6B
:10459000036D9847A5E72046FFF705FFD1E72046C2
:1045A000FFF7CCFE9DE72046FFF7C8FE99E72046BF
:1045B000FFF7C4FE0023636493E713F0100F82D06B
:1045C00010F0100F3FF47FAF0023019313680193A5
:1045D00053680193019B536913F0400F52D0E26B73
:1045E00013685B689BB2002B3FF47BAFA18D9942AF
:1045F0007FF677AFE385D369B3F5807F37D0226844
:1046000002F10C0353E8003F23F480730C3242E8BC
:1046100000310029F3D1226802F1140353E8003F6E
:1046200023F00103143242E800310029F3D122685B
:1046300002F1140353E8003F23F04003143242E830
:1046400000310029F3D1202384F842300023236372
:10465000226802F10C0353E8003F23F010030C32F0
:1046600042E800310029F3D1E06BFEF7B4FF0223EA
:104670006363A18DE38D9BB2C91A89B22046FDF711
:1046800041FF2EE7A18DE38D9BB2C91A89B2E38D5C
:104690009BB2002B3FF425AF00293FF422AF2268E4
:1046A00002F10C0353E8003F23F490730C3242E80C
:1046B00000300028F3D1226802F1140353E8003FD0
:1046C00023F00103143242E800300028F3D1202304
:1046D00084F8423000232363226802F10C0353E87C
:1046E000003F23F010030C3242E800300028F3D1E1
:1046F000022363632046FDF705FFF2E62046FFF73D
:1047000025FDEEE62046FFF70AFEEAE6974300089D
:1047100008B5806B01234363036B012B02D0FFF7C5
:104720000CFE08BD818D4908FDF7ECFEF9E708B5E0
:104730000346806B1B681B6813F4807F2BD100231A
:10474000C385026802F10C0353E8003F23F4807331
:104750000C3242E800310029F3D1026802F114035F
:1047600053E8003F23F00103143242E800310029EE
:10477000F3D1026802F1140353E8003F23F0400331
:10478000143242E800310029F3D1202380F842306E
:10479000036B012B07D000234363036B012B0FD066
:1047A000FFF7CAFD08BD026802F10C0353E8003FA1
:1047B00023F010030C3242E800310029F3D1EAE77C
:1047C000818DFDF79FFEEDE730B583B004461346BB
:1047D0008162828500254564222280F84220C26BD6
:1047E0001F48D063E26B1F481064E26B1E48D06420
:1047F000E26B156520680A46011DE06BFEF7B6FE08
:10480000019523681A6801925B680193019B2369F3
:104810005BB1226802F10C0353E8003F43F480735C
:104820000C3242E800310029F3D1226802F114036E
:1048300053E8003F43F00103143242E800310029FD
:10484000F3D1226802F1140353E8003F43F0400320
:10485000143242E800310029F3D1002003B030BD0A
:104860002F470008114700083F43000890F84230E6
:10487000DBB2202B29D110B582B0044639B312B96E
:10488000012002B010BD0123036300234363FFF73F
:104890009BFF0028F5D1236B012B01D00120F0E70D
:1048A0000023019323681A6801925B680193019BBE
:1048B000226802F10C0353E8003F43F010030C326E
:1048C00042E800310029F3D1DBE7022070470120E4
:1048D000D7E700002DE9F047089D0E4604460F4635
:1048E000002B4AD194468C45B2FA82F260D942B18B
:1048F000C2F12003974020FA03F30CFA02FC1F4395
:1049000094404FEA1C4E1FFA8CF6B7FBFEF1230CC5
:104910000EFB117743EA074301FB06F098420AD9E0
:104920001CEB030301F1FF3780F01581984240F240
:104930001281023963441B1AA4B2B3FBFEF00EFBD2
:10494000103344EA034400FB06F6A6420AD91CEBE6
:10495000040400F1FF3380F00081A64240F2FD80A4
:104960006444023840EA0140A41B00211DB1D44038
:104970000023C5E90043BDE8F0878B4205D90DB19E
:10498000C5E9000100210846F5E7B3FA83F10029E3
:1049900046D1B34202D3824200F2F580841A66EB1C
:1049A000030201201746002DE5D0C5E90047E2E7E4
:1049B000002A40F09380A1EB0C034FEA1C471FFA3A
:1049C0008CFE0121B3FBF7F607FB1630230C43EAFC
:1049D00000430EFB06F0984208D91CEB030306F1D6
:1049E000FF3802D2984200F2D08046461B1AA4B289
:1049F000B3FBF7F007FB103344EA03440EFB00FE61
:104A0000A64508D91CEB040400F1FF3302D2A645E9
:104A100000F2B6801846A4EB0E0440EA0640A5E773
:104A2000C1F120078B4022FA07FC4CEA030C06FA7E
:104A300001FE20FA07F426FA07F344EA0E0400FA0E
:104A400001F84FEA1C404FEA1449B3FBF0FE1FFA8D
:104A50008CF600FB1E3349EA03430EFB06F9994529
:104A600002FA01F20BD91CEB03030EF1FF3A80F0BE
:104A70008580994540F28280AEF1020E6344A3EB3B
:104A80000909A4B2B9FBF0F300FB139944EA094405
:104A900003FB06F6A64208D91CEB040403F1FF3021
:104AA00068D2A64266D9023B644443EA0E40A41B86
:104AB000A0FB02E6B4427346B14652D34FD05DB17B
:104AC000B8EB030264EB090404FA07F722FA01F3D6
:104AD0001F43CC40C5E9007400214CE7C2F120011E
:104AE00020FA01F30CFA02FC26FA01F19640334356
:104AF0004FEA1C471FFA8CFEB1FBF7F007FB1016BC
:104B0000190C41EA064100FB0EF68E4204FA02F44B
:104B100008D91CEB010100F1FF382DD28E422BD9B0
:104B200002386144891B9BB2B1FBF7F607FB1611F3
:104B300043EA014306FB0EF1994208D91CEB03033B
:104B400006F1FF3814D2994212D9023E63445B1A2F
:104B500046EA004136E73946EDE6184602E7F045F9
:104B6000ADD2BEEB020366EB0C060138B146A6E7F8
:104B70004646ECE7034698E74046D3E7D6467EE74D
:104B80006444023847E708460DE7023E63442DE7D8
:104B9000830730B547D0541E002A3ED0CAB2034620
:104BA00001E0013C39D303F8012B9D07F9D1032C17
:104BB0002CD9CDB205EB05250F2C05EB054535D9D4
:104BC000A4F1100222F00F0C03F1100EE6444FEA9C
:104BD000121C1A46C2E90055C2E90255103272454C
:104BE000F8D10CF1010214F00C0F03EB021204F0E7
:104BF0000F0C13D0ACF1040323F00303043313446C
:104C000042F8045B9342FBD10CF003042CB1C9B20F
:104C10001C4403F8011BA342FBD130BD644613467C
:104C2000002CF4D1F9E703461446C0E71A46A4461F
:104C3000E0E700BF014B1868704700BF100000207C
:104C400070B50F4B0F4DAB42A3EB050607D0B61066
:104C5000002455F8043B01349847A642F9D801F0E6
:104C6000B5FA094D094B5E1BAB424FEAA60606D0CA
:104C7000002455F8043B01349847A642F9D870BD8A
:104C80009065000890650008906500089865000828
:104C9000704700BF704700BF024B13B1024800F0DD
:104CA00005B8704700000000B94C00080023014619
:104CB0001A46184600F014B838B5074D074C2C1B9F
:104CC000A41005D0013C55F8043D9847002CF9D1BB
:104CD000BDE8384001F080BA9C650008986500087E
:104CE0002DE9F8431B4D0646286898460F46914625
:104CF000FFF7CEFF184B1C681CB3286865681F2D92
:104D000022DC4EB96B1C0235636044F82570FFF756
:104D1000C1FF0020BDE8F88304EB85010123C1F841
:104D20008890D4F88821AB401A43022EC4F8882119
:104D3000C1F80881E6D1D4F88C211A43C4F88C213B
:104D4000E0E7064C1C60D8E7FFF7A4FF4FF0FF3008
:104D5000E0E700BF5801002050090020540900205E
:104D600000F08AB92DE9F84314461D46804689466D
:104D700000F04EFA224606460F462B4620462946AC
:104D8000FCF77CF978B90022002340464946FCF73D
:104D900043F9D8B10022002320462946FCF73CF90C
:104DA00028B1264F002630463946BDE8F883204614
:104DB000294600F06DF80028F5D02046294600224B
:104DC0000023FCF733F90028EDD02CE030463946BB
:104DD00000F05EF8A0B10022002330463946FCF70F
:104DE0001BF90028DFD04046494600F051F8002862
:104DF000D9D02046294600F04BF80028D3D012E045
:104E00004046494600F044F80028E4D020462946B0
:104E100000F03EF80028DED032463B4630463946A8
:104E2000FCF72CF920B9FFF705FF22230360BAE74E
:104E3000FFF700FF21230360B5E700BF0000F03F4C
:104E4000F8B504460D4600F029F8224606460F46FE
:104E50002B4620462946FCF711F930B92046294651
:104E600000220023FCF7E2F810B930463946F8BDBD
:104E7000FFF7E0FE002200232121016010461946C1
:104E8000FBF730FD06460F4630463946F8BD00BFF9
:104E900041F0004000F58010C00F7047724A8A430D
:104EA0002DE9F84F06460F4600F0A98000290C4670
:104EB000034655DD081562D0C4F31302C107A0F202
:104EC000FF3742F4801203D4D90F01EB42025B009A
:104ED0005200002602EBD3727F105B001624B4460A
:104EE0004FF400110CEB010090424FEAD3754FEAEA
:104EF000430303DC00EB010C121A0E44013C05EBEA
:104F000042024FEA5101EDD1A04620254FF000406A
:104F10000AE043D0510001EBD371013D0A464FEA4C
:104F200043034FEA500045D0944508EB000EF0DAF9
:104F3000BEF1000F0EEB00080CDBE146A2EB0C010A
:104F40009E4588BF01F1FF314900CC46A3EB0E031B
:104F50000444E0E7B8F1000FEFDB0CF10109EDE7E5
:104F600021F00042024344D000296BD1DA0A153CFB
:104F70005B05002AFAD0D60220466CD414460022E3
:104F80006400E502114602F10102F9D5C2F12005E3
:104F900023FA05F52C439340401A8DE79E4502D92C
:104FA0004FEA4C01B7E7BEF1000F0EEB000822DB21
:104FB0000021CBE7194312D0DFF8B0A0DFF8B0B082
:104FC000DAE90001DBE90023FBF7AAF9DAE9008955
:104FD00002460B4640464946FCF732F8C8B9650818
:104FE000731003F17F5303F5001303EB075145EAF8
:104FF000C670BDE8F88FB8F1000FAEDAD8E7024608
:105000000B46FBF745FB32463B46FBF78BF9BDE809
:10501000F88FB4F1FF3FDAE90001DBE900231ED08D
:10502000FBF780F9DAE9008902460B46404649461B
:10503000FBF7FCFFA8B1A31C04F1020508BF013671
:105040006D08CDE702460B46FBF76AF902460B46B0
:10505000FBF748FCCDE74FF0FF3114469CE70136E3
:10506000BEE70134BBE700BF0000F07F1065000819
:1050700008650008000000002DE9F84F99465342EA
:105080005F4F134329F0004E4EEAD373BB42904664
:1050900004460D463DD84642064321F0004A4AEAFE
:1050A000D676BE4203468B4633D809F1404606F514
:1050B000801616433DD04FEAA97606F002065AEA5A
:1050C000030346EAD1762CD05EEA020235D0BE4513
:1050D00046D0BA4531D0AAEB0E0ABAF1747F4FEA36
:1050E0002A5339DAB9F1000F46DA3C3344DA0020AA
:1050F0000021012E58D0022E49D086B134A3D3E925
:105100000023FBF70DF934A3D3E90023FBF708F9DB
:1051100005E022462B4640464946FBF703F9BDE829
:10512000F88F022E10D0032EF9D12DA1D1E9000164
:10513000F5E7BDE8F84F00F013BEBBF1000F07DB49
:1051400029A1D1E90001EAE723A1D1E90001E6E7BD
:1051500027A1D1E90001E2E723A1D1E90001C8E7D5
:10516000F24506F1FF3623D0022E29D8254B03EB5A
:10517000C603D3E90001D2E742464B462046294602
:10518000FBF7B0FB00F080FF00F0EAFDB1E710A3F1
:10519000D3E90023FBF7C4F802460B460EA1D1E980
:1051A0000001FBF7BDF8BAE701F100431946B6E785
:1051B000022E08D8144B03EBC603D3E90001AEE777
:1051C00000200021ABE70CA1D1E90001A7E700BF57
:1051D000075C143326A6A13C182D4454FB2109403A
:1051E000182D4454FB2109C0182D4454FB21F93FCC
:1051F000182D4454FB21F9BF182D4454FB21E93FDD
:105200000000F07F1865000830650008000000000D
:105210002DE9F04F23F00047044657EA020093B00F
:1052200092469B460D4610D12319814985F40022F0
:1052300052419842914121D252465B46204629462E
:10524000FBF770F813B0BDE8F08F9946794B0094E6
:105250000E4621F000419942029114D9009B06F1BB
:10526000404606F580161E43E6D15346DB187049CA
:105270008BF4002252419E429141DDD36E490020C1
:1052800013B0BDE8F08F14D09F42E7D8029B00F026
:10529000A580002E15DB002A40F0B88066498F42B9
:1052A00040F0CA83B9F1000FC0F2BB842046294602
:1052B000C8E7002CC0D18F42BED800F0ED83029B1E
:1052C000E7E75E498F4200F2B1835D498F423DD8E6
:1052D000002A40F0C083B9F1804F30D0904620467C
:1052E0002946049300F0D0FE009A049B002A4DD07A
:1052F000F20F013A52EA080C00F0968008F1FF38EC
:1053000058EA020814BF4C4D4E4D0024B7F1844FAB
:10531000CDE9064540F29A804B4B029A9F42484B9A
:1053200040F2F2839A4200F28D84B9F1000FC0F28C
:105330008D84002013B0BDE8F04F00F03BBF224643
:105340002B4620462946FBF7A3F97BE73915A1F246
:10535000FF31142940F34C84C1F1340122FA01F0E9
:1053600000FA01F1914200F0B584002A40F0738305
:10537000B9F1804F0493E2D02046294600F084FE24
:10538000009A049B002A4FD1DDF800802A4A26F0BB
:10539000404C944502D0029A002AA9D1B9F1000FDD
:1053A00005DA02460B4600202349FBF79BFA002E44
:1053B000BFF648AF029B03F1404B0BF5801B5BEA45
:1053C000080B40F0368402460B4610461946FAF7A1
:1053D000A7FF02460B46FBF785FA33E7002A7FF466
:1053E0003DAF029B009A03F1404303F58013134342
:1053F0003FF444AF124B029A9A4240F2EC83B9F167
:10540000000FC0F25684504659461BE74FF0000883
:1054100020462946049300F037FE009A049B002A98
:10542000B4D0F20F013A69E722462B46CDE700BF20
:105430000000F0FF0000F07F0000F03FFFFF3F435F
:10544000FFFFEF3F0000F0BF0000F043D64A3240BC
:10545000002A40F02583D54B0022FBF719F96FF0A5
:1054600034040B461A15A2F2FF321519D04A0B95D7
:10547000C3F3130343F07F54934244F4401407DD15
:10548000CC4A934240F3E88301350B95A4F5801490
:1054900000220023CDE90823CDE91023C64B0022CA
:1054A000CDE904230025DDE9042321468046FAF7EF
:1054B00037FFA146DDE9042306460F464046214654
:1054C000CDE90C89FAF72EFF02460B460020BA49B7
:1054D000FBF708FA0A460146CDE90E121346394693
:1054E00002463046FBF7D4F80A4601464FF0000C5E
:1054F000CDE902121146CDE900016310CDF800C0DC
:10550000DDE9008943F0005303F500230020591919
:1055100004460D4602460B4640464946FBF7B8F89E
:1055200002460B4630463946FAF7FAFEDDE9042317
:1055300006460F4620462946FAF7F2FE02460B467B
:10554000DDE90C01FAF7ECFE42464B46FBF7A0F80A
:1055500002460B4630463946FAF7E2FEDDE90E23F5
:10556000FBF796F8DDE90245CDE9040122462B461A
:1055700020462946FBF78CF879A3D3E9002304469B
:105580000D46FBF785F878A3D3E90023FAF7CAFEA6
:1055900022462B46FBF77CF875A3D3E90023FAF7E4
:1055A000C1FE22462B46FBF773F873A3D3E9002311
:1055B000FAF7B8FE22462B46FBF76AF870A3D3E948
:1055C0000023FAF7AFFE22462B46FBF761F86EA3E5
:1055D000D3E90023FAF7A6FE224606460F462B46DD
:1055E00020462946FBF754F802460B46304639461A
:1055F000FBF74EF8424604460D464B46DDE90201F4
:10560000FAF790FEDDE90423FBF742F822462B4629
:10561000FAF788FE424604460D464B464046494648
:10562000FBF736F8654B002206460F46FAF77AFE7E
:1056300022462B46CDE90C45FAF774FE00240D46B0
:1056400022462B4640464946FBF722F85B4B8046F4
:105650008946002220462946FAF762FE32463B463A
:10566000FAF75EFE02460B46DDE90C01FAF758FE3A
:10567000DDE90223FBF70CF8224606460F462B46CF
:10568000DDE90401FBF704F802460B4630463946D3
:10569000FAF748FE06460F4602460B464046494684
:1056A000FAF740FE00243AA3D3E9002320460D4632
:1056B000FAF7EEFF4246CDE902014B462046294665
:1056C000FAF72EFE02460B4630463946FAF728FE18
:1056D00031A3D3E90023FAF7DBFF31A3D3E9002399
:1056E00006460F4620462946FAF7D2FF02460B46E9
:1056F00030463946FAF716FEDDE91023FAF712FEB6
:1057000006460B980F46FAF759FF324604460D46F7
:105710003B46DDE90201FAF705FEDDE90823FAF769
:1057200001FE22462B46FAF7FDFD002022462B46BD
:1057300080468946FAF7F4FDDDE90823FAF7F0FD23
:10574000DDE90223FAF7ECFD02460B463046394606
:10575000FAF7E6FDCDE9020132E000BFAFF30080C9
:10576000EF4E454A287ECA3F65DBC9934A86CD3F46
:1057700001411DA96074D13F4D268F515555D53F2C
:10578000FFAB6FDBB66DDB3F033333333333E33FC4
:10579000000000E009C7EE3FFD033ADC09C7EE3F19
:1057A000F5015B14E02F3EBE0000F07F0000404397
:1057B0008E98030079B60B000000F03F000008400F
:1057C0000023CDE900AB0093DDE90067594632467E
:1057D0003B465046FAF7A4FD42464B46FAF758FFBF
:1057E0005B4604460D465246DDE90201FAF750FFDA
:1057F00002460B4620462946FAF794FD32460446F7
:105800000D463B4640464946CDE90245FAF740FF82
:105810000B4602468046894620462946FAF782FD15
:10582000B34B994204460D468B4640F3168101F175
:105830003F4303F5E003034340F01F829AA3D3E9FB
:105840000023DDE90201FAF76DFD424606460F46E8
:105850004B4620462946FAF763FD02460B46304682
:105860003946FBF701FC002840F007824FF4007333
:105870005B44C3F30A529F4CA2F2FF32C3F31301FD
:10588000144141F48011C2F1140241FA02FA0020DD
:1058900004EA0301BBF1000F02460B4640464946AD
:1058A000B8BFCAF1000AFAF73BFD02460B46804634
:1058B0008946DDE90201FAF735FD4FEA0A5B0D463C
:1058C00000247BA3D3E9002320462946FAF7E0FE13
:1058D000424606460F464B4620462946FAF720FD2B
:1058E00002460B46DDE90201FAF71AFD72A3D3E97D
:1058F0000023FAF7CDFE72A3D3E900238046894640
:1059000020462946FAF7C4FE02460B464046494661
:10591000FAF708FD8046894602460B46304639466E
:10592000FAF700FD32463B4604460D46FAF7F8FC0E
:1059300002460B4640464946FAF7F2FC22468046AC
:1059400089462B4620462946FAF7A2FE5EA3D3E9F4
:10595000002306460F46FAF79BFE5DA3D3E900231A
:10596000FAF7DEFC32463B46FAF792FE5AA3D3E939
:105970000023FAF7D7FC32463B46FAF789FE58A3D4
:10598000D3E90023FAF7CCFC32463B46FAF780FE17
:1059900055A3D3E90023FAF7C5FC32463B46FAF794
:1059A00077FE02460B4620462946FAF7B9FC064622
:1059B0000F4602460B4620462946FAF769FE0022AA
:1059C000CDE900014FF0804330463946FAF7A8FC94
:1059D00002460B46DDE90001FAF784FF424606461F
:1059E0000F464B4620462946FAF752FE42464B46A2
:1059F000FAF798FC02460B4630463946FAF790FC17
:105A000022462B46FAF78CFC02460B4600203A4908
:105A1000FAF786FC0C465C44B4F5801FC0F237816F
:105A20002146DDE90623FAF733FE0BE44FF00208C6
:105A3000002A7FF4EDAC52E4B9F1804F3FF47FAC23
:105A40002E4989457FF44AAC2046294613B0BDE86B
:105A5000F04FFFF723BA04938EE4294E21F0004360
:105A6000B34240F2D680274B0B4403430AD142464F
:105A70004B46FAF755FCDDE90223FBF7EBFA002869
:105A80003FF4F4AEDDE9060100220023FBF7CEFA75
:105A9000003818BF01204DE4002A7FF4CDABA9E403
:105AA0000024DFE4AFF30080FE822B654715973CAE
:105AB00000000000432EE63FEF39FAFE422EE63F9B
:105AC000396CA80C615C20BED0A4BE726937663EFA
:105AD000F16BD2C541BDBB3E2CDE25AF6A56113FEE
